:020000040000FA
:0600000038EF1BF01200B6
:0610000038EF1BF01200A6
:061008002AEF14F01200B3
:0610180075EF14F0120058
:06102A000400F036000096
:10103000FB00000004000000EA360000E8010000A8
:1010400006000000E8360000F00100000200000089
:0C105000E6360000EE0100000200000087
:04105C00D9CFE6FF03
:10106000E1CFD9FFE6520F015F6B626A160E616E27
:101070009F0E5B6F7B0E606E648C5C6B020EE66E87
:10108000E66AE66A540EE66E0F0EE66EE0EC1AF0C3
:10109000106E050EE15E1050649CDF6ADF50106E2A
:1010A000116A100E105C000E115810E2DF50040D92
:1010B000F3CFE9FFF4CFEAFF000EE926020EEA22A1
:1010C000EE6AEE6AEE6AEE6ADF2AE8D70F01160EC4
:1010D000536F62A60CD0030EE66E620EE66E0F0E24
:1010E000E66E24EC10F0E552E552E552F2D701012C
:1010F000AA6BAF6BB06BB16B6498080E9E6F020E5B
:101100009F6F906B8F6BE552E552E7CFD9FF1200CE
:10111000D9CFE6FFE1CFD9FFE65201018F0507E104
:1011200064BA05D0626A60806088020E8F6F625078
:10113000040B0FE06050040B0CE0020EE66E620E32
:10114000E66E0F0EE66E24EC10F0E552E552E55225
:10115000E8D864B271D06250010B1BE06050010B03
:1011600018E07CDF0101040E8F6F0201400E026F58
:10117000020E036F080E016F006B8C0E0013E66AFF
:10118000620EE66E0F0EE66E24EC10F0E552E552AC
:10119000E5526250100B0FE06050100B0CE0A5D828
:1011A000040EE66E620EE66E0F0EE66E24EC10F094
:1011B000E552E552E5526250400B1DE06050400B95
:1011C0001AE0010EE66EE66A000EE66EE66A020EB0
:1011D000E66EE66ADFEC13F0106E060EE15E10506C
:1011E000060EE66E620EE66E0F0EE66E24EC10F052
:1011F000E552E552E5526250200B04E06050200BAE
:1012000001E04FD86250020B13E06050020B10E077
:10121000010EE66EE66A000EE66EE66AE668E668CD
:10122000DFEC13F0106E060EE15E10500F015F6BE5
:10123000040E01018F5D02E2A1942ED060A62BD096
:10124000DF6A040EDF5C27E262A625D063CFB7F128
:10125000030EE66E620EE66E0F0EE66E24EC10F0E4
:10126000E552E552E552780E0101B71502E178D852
:1012700010D0000EE66EE66AB70EE66E010EE66E60
:10128000010EE66EE66ADFEC13F0106E060EE15E0C
:101290001050DF2AD6D7A194E552E552E7CFD9FF07
:1012A00012000F0153A115D092C1E9FF93C1EAFFCB
:1012B000EF5080080DE19EC1E9FF9FC1EAFFEF50AA
:1012C000840806E192C1E9FF93C1EAFF8C0EEF6E3C
:1012D0005391050EE66E620EE66E0F0EE66E24EC7E
:1012E00010F0E552E552E55212006084040EE66EFD
:1012F000620EE66E0F0EE66E24EC10F0E552E5523B
:10130000E5526482000EE66EE66AE66EE66A040E58
:10131000E66EE66ADFEC13F0106E060EE15E10502A
:101320001200000EE66EE66AE66EE66A030EE66EF0
:10133000E66ADFEC13F0106E060EE15E1050649268
:10134000609462A40CD0020EE66E620EE66E0F0E82
:10135000E66E24EC10F0E552E552E552F2D71200A9
:10136000D9CFE6FFE1CFD9FFE652FD0E0101B71557
:101370005AE17E0EB715E8407F0B040DF3CF92F1D2
:10138000F4CF93F1000E9227020E932392C194F1B1
:1013900093C195F1947592C1E9FF93C1EAFFEF50B3
:1013A0003C0BE842E8420D083CE192C1E9FF93C1E1
:1013B000EAFF020EE926000EEA22EECF10F0EFCF90
:1013C00011F0480E10182BE1020E111828E192C1FD
:1013D000E9FF93C1EAFF020EE926000EEA22400E61
:1013E000EE6E020EED6EDF6ADF50106E116A080EAF
:1013F000105C000E115813E2DF50EA6A480FE96EE4
:10140000020EEA22EF50E66EDF50EA6A400FE96E04
:10141000020EEA22E552E750EF6EDF2AE5D70DD83B
:1014200007D02ED805D0FD0EB715040801E14ED81F
:10143000E552E552E7CFD9FF12009EC1E9FF9FC1F7
:10144000EAFFEF50800B05E09EC1E9FF9FC1EAFF74
:10145000EF6A0101A66BA76BAB6BAC6BAA6BB5D83F
:10146000000EE66EE66AE66EE66A170EE66EE66A5D
:10147000DFEC13F0106E060EE15E10507BEF0CF007
:10148000020E0101A75D02E1D6EF0DF06CD801015B
:10149000B8511AE194C1E9FF95C1EAFFEE52080E76
:1014A000EF6E94C1E9FF95C1EAFF020EE926000E36
:1014B000EA22400EEE6E020EED6E94C1E9FF95C178
:1014C000EAFF8C0EEF6E1200B86B1200D9CFE6FF68
:1014D000E1CFD9FFE6529EC1E9FF9FC1EAFFEF507D
:1014E000400B01E0010EDF6E01019E75080E8F5D5D
:1014F0000CE142C25CFF0F015C51000803E20101F4
:10150000100E02D00101040E8F6FA70526E19EC1C7
:10151000E9FF9FC1EAFF020EE926000EEA22480E0B
:10152000EE6E020EED6EB9DA020E0101A65D06E165
:101530009EC1E9FF9FC1EAFF840E0DD0DF5006E196
:101540009EC1E9FF9FC1EAFFC80E05D09EC1E9FF19
:101550009FC1EAFF880EEF6E01D005D8E552E55233
:10156000E7CFD9FF1200D9CFE6FFE1CFD9FF020EB6
:10157000E1260101A76B9EC1E9FF9FC1EAFFEF6A67
:10158000040E9E19106E9FC111F0DE6E9FC1DDFF2B
:10159000DECFE9FFDDCFEAFFEF6AAFAF0CD0B2518B
:1015A000B31107E005D0B3C1FAFF0101B251F96EE2
:1015B000FADF0101AF9F020EE15C02E2E16AE5524F
:1015C000E16EE552E7CFD9FF120002014051600BF6
:1015D000E842E842E842E842E842000901E012003D
:1015E00041510C0A50E00B0A3FE00C0A31E0010ABD
:1015F00022E00B0A1EE0020A1CE0030A18E0080AB7
:1016000010E0010A0CE00F0A08E0030A01E01200F2
:101610000101AA8F080E8F6F1200CAEF0BF073EF53
:101620000EF00101900EA86F010EA96F0CD021EFF2
:101630000CF044EF0BF044510101A86FA96B910E1F
:10164000A827010EA923AA81010EAB6FAA8F120051
:101650000101AA8F02014451EA6A910FE96E010E5D
:10166000EA2242C2EFFF1200000EE66EE66AE66E64
:10167000E66A160EE66EE66ADFEC13F0106E060EF2
:10168000E15E105012001200D9CFE6FFE1CFD9FF82
:10169000040EE1260201420510E140511F0B000932
:1016A0000CE10101AA8F030E0201415D04E1010179
:1016B000010EB66F02D00101B66B0201425160E12A
:1016C00040511F0B02085CE144510F0B000958E028
:1016D0000101AA8F020144BF0BD044510F0BE96EE8
:1016E000EA6AD890E936EA36960EE926010E0AD063
:1016F00044510F0BE96EEA6AD890E936EA369E0E3D
:10170000E926010EEA22EECFDEFFEDCFDDFF030E6C
:10171000415D06E1DECFE9FFDDCFEAFF840E2FD089
:1017200044510F0B116A530F106E0F0E1122020E4F
:1017300010C0DBFF030E11C0DBFF020EDBCFE9FFA1
:10174000030EDBCFEAFFEE90ED5244AF0CD0DECFBC
:10175000E9FFDDCFEAFFEF6ADF74DECFE9FFDDCF1F
:10176000EAFF400E0CD0DECFE9FFDDCFEAFF880EA6
:10177000EF6EDF74DECFE9FFDDCFEAFFC80EEF6E5C
:10178000040EE15C02E2E16AE552E16EE552E7CF68
:10179000D9FF1200800E0201405D52E10101C00E2E
:1017A000AA6F02014351030A29E0010A09E0030A72
:1017B00045E101012C0EA86F310EA96F120E38D031
:1017C0004251F66EF76AD890F636F736ED0EF626E9
:1017D000310EF7220900F5CFA8F10A00F5CFA9F1E3
:1017E000020E0101F76AA825F66EA951F722090039
:1017F000F5CFABF10A00F5CFACF11200030E425D5C
:101800001AE24251F66EF76AD890F636F736EF0EC6
:10181000F626310EF7220900F5CFA8F10A00F5CF20
:10182000A9F1A8C1F6FFA9C1F7FF0800F550010111
:10183000AB6FAC6B12000101AA6B12000101AA6B25
:101840001200D9CFE6FFE1CFD9FF020EE126020157
:10185000486B496B40511F0B020A11E0030A0CE070
:10186000010A35E10101AA8F020148810101B60593
:101870002EE1020148832BD00101AA8F28D001015B
:10188000AA8F020144BF0BD044510F0BE96EEA6AE4
:10189000D890E936EA36960EE926010E0AD0445170
:1018A0000F0BE96EEA6AD890E936EA369E0EE92611
:1018B000010EEA22EECFDEFFEDCFDDFFDECFE9FF46
:1018C000DDCFEAFFEF50040B02E0010E486F01018B
:1018D000AAAF07D0480EA86F020EA96FAA81020E08
:1018E000AB6F020EE15C02E2E16AE552E16EE552A5
:1018F000E7CFD9FF120064980101AABF47D0AFAF6C
:1019000026D0020EA76F9EC1E9FF9FC1EAFFEE52EB
:10191000EF6A9EC1E9FF9FC1EAFFC80EEF6E94C156
:10192000E9FF95C1EAFFEE52080EEF6E94C1E9FFA0
:1019300095C1EAFF020EE926000EEA22480EEE6E7D
:10194000020EED6E94C1E9FF95C1EAFF7AD094C111
:10195000E9FF95C1EAFFEE52080EEF6E94C1E9FF70
:1019600095C1EAFF020EE926000EEA22400EEE6E55
:10197000020EED6E94C1E9FF95C1EAFF8C0EEF6E89
:101980009EC1E9FF9FC1EAFF840E5CD0AFBF84D047
:10199000020140AF59D00101AB510201465D010186
:1019A000AC510201475904E246C2ABF147C2ACF167
:1019B00074D80101010EA76F94C1E9FF95C1EAFF38
:1019C000EE52080EEF6E94C1E9FF95C1EAFF020ED8
:1019D000E926000EEA22400EEE6E020EED6E94C174
:1019E000E9FF95C1EAFF800EEF6EB86B92C1E9FF87
:1019F00093C1EAFFEE52080EEF6E92C1E9FF93C168
:101A0000EAFF020EE926000EEA22400EEE6E020EFA
:101A1000ED6E92C1E9FF93C1EAFF840EEF6E010EF5
:101A2000B86F9EC1E9FF9FC1EAFF020EE926000ED2
:101A3000EA22480EEE6E020EED6E9EC1E9FF9FC1D6
:101A4000EAFFC80EEF6E12000101020EA76F9EC1E1
:101A5000E9FF9FC1EAFFEE52EF6A9EC1E9FF9FC115
:101A6000EAFFC80EEF6E94C1E9FF95C1EAFFEE529E
:101A7000080EEF6E94C1E9FF95C1EAFF020EE92658
:101A8000000EEA22480EEE6E020EED6E94C1E9FFE2
:101A900095C1EAFFC80EEF6E1200D9CFE6FFE1CF85
:101AA000D9FF020EE1260101080EAB5D000EAC5914
:101AB0000DE2ABC1DEFFACC1DDFFA65102E1010EBC
:101AC00003D0A60506E1020EA66F03D0080EDE6E57
:101AD000DD6A9EC1E9FF9FC1EAFFEF929EC1E9FF67
:101AE0009FC1EAFFEF909EC1E9FF9FC1EAFF010E8F
:101AF000DB50EF129EC1E9FF9FC1EAFFEE52DFCF3C
:101B0000EFFF000EDB50AB5F010EDB50AC5B480E0D
:101B1000B46F020EB56FAAB120D0D9CFE9FFDACFEA
:101B2000EAFFEE50ED1038E0A8C1F6FFA9C1F7FFBB
:101B3000A82B000EA9230800F550E66EB4C1E9FFFA
:101B4000B5C1EAFFB42B000EB523E552E750EF6EA6
:101B5000DF06010EE2E2DB06E0D7D9CFE9FFDACFFC
:101B6000EAFFEE50ED1018E0A8C1E9FFA9C1EAFFB5
:101B7000A82B000EA923EF50E66EB4C1E9FFB5C152
:101B8000EAFFB42B000EB523E552E750EF6EDF06F7
:101B9000010EE3E2DB06E1D7020EE15C02E2E16A5C
:101BA000E552E16EE552E7CFD9FF1200D9CFE6FF4B
:101BB000E1CFD9FF020EE12692C1E9FF93C1EAFF0E
:101BC000EE52EFCFDFFFDFCF10F010500101B05D1C
:101BD000000EB15903E2B0C1DFFF09D0DF50106E33
:101BE000116AE850B05DB06F1150B159B16F010E7C
:101BF000DB6ADF50F36E010EDBCFF4FFF350F45CD1
:101C000016E2010EDB50EA6A480FE96E020EEA2284
:101C1000EF50E66EADC1E9FFAEC1EAFFAD2B000E9D
:101C2000AE23E552E750EF6E010EDB2AE2D7000E3D
:101C3000D880B055000EB15527E294C1E9FF95C197
:101C4000EAFFEE52080EEF6E94C1E9FF95C1EAFF7C
:101C5000020EE926000EEA22480EEE6E020EED6E2E
:101C600092C1E9FF93C1EAFFEF50400B06E194C136
:101C7000E9FF95C1EAFFC80E05D094C1E9FF95C1FF
:101C8000EAFF880EEF6E25D094C1E9FF95C1EAFF07
:101C9000EE52080EEF6E94C1E9FF95C1EAFF020E05
:101CA000E926000EEA22400EEE6E020EED6E94C1A1
:101CB000E9FF95C1EAFF840EEF6EB251B31107E060
:101CC00005D0B3C1FAFF0101B251F96EFADF01018B
:101CD000AF9F020EE15C02E2E16AE552E16EE5527D
:101CE000E7CFD9FF12000101AA8F020EE66EE66A65
:101CF000E66A540EE66E0F0EE66EE0EC1AF0106E19
:101D0000050EE15E1050010EE66EE66AE66A910E7F
:101D1000E66E010EE66EE0EC1AF0106E050EE15E66
:101D2000105042C290F10201425104E10101100E33
:101D30008F6F12000101200E8F6F000EE66EE66AB3
:101D4000E66EE66A150EE66EE66ADFEC13F0106EDC
:101D5000060EE15E10501200D9CFE6FFE1CFD9FFA9
:101D6000020EE126000EDE6E020EDD6EFD0EDB5071
:101D7000E824126EFE0EDB50040DF3501224040D05
:101D8000F350106E116A020E0F0B05E0D89011325D
:101D90001032E806FBE1D89010361136D890103694
:101DA0001136D9CFE9FFDACFEAFF1050EE261150F5
:101DB000ED22DECFE9FFDDCFEAFFEF9EFD0EDB5027
:101DC0000AE1FE0EEA6ADB34FE0BEA36E96E960E95
:101DD000E926010E09D0FE0EEA6ADB34FE0BEA3674
:101DE000E96E9E0EE926010EEA22DECFEEFFDDCF80
:101DF000EDFFDECFE9FFDDCFEAFFEF9CDECFE9FFAD
:101E0000DDCFEAFF040EE926000EEA22EF8C020E77
:101E1000E15C02E2E16AE552E16EE552E7CFD9FF0B
:101E20001200D9CFE6FFE1CFD9FF020EE126FE0E68
:101E3000DB50116A530F106E0F0E112210C0DEFF1F
:101E400011C0DDFFDECFE9FFDDCFEAFFFD0EDBCF06
:101E5000EFFFDBA407D0E66AFE0EDBCFE6FF7CDFF8
:101E6000E552E552FD0EDBA208D0010EE66EFE0E35
:101E7000DBCFE6FF71DFE552E552020EE15C02E2E4
:101E8000E16AE552E16EE552E7CFD9FF1200D9CF02
:101E9000E6FFE1CFD9FF020EE126FE0EDB5020E186
:101EA00094C1E9FF95C1EAFFEE52080EEF6E94C1AE
:101EB000E9FF95C1EAFF020EE926000EEA22400E74
:101EC000EE6E020EED6E94C1E9FF95C1EAFF8C0E35
:101ED000EF6E9EC1E9FF9FC1EAFF840EEF6E3BD01B
:101EE000FD0EDB50E824126EFE0EDB50040DF350A5
:101EF0001224040DF3CF10F0F4CF11F0000E1026D1
:101F0000020E112210C0DEFF11C0DDFF840EDECFF5
:101F1000E9FFDDCFEAFFE850EF12FD0EDB50E824C9
:101F2000126EFE0EDB50040DF3501224010F040D4F
:101F3000F3CF10F0F4CF11F0000E1026020E112294
:101F400010C0DEFF11C0DDFF840EDECFE9FFDDCF64
:101F5000EAFFE850EF12020EE15C02E2E16AE552AC
:101F6000E16EE552E7CFD9FF1200D9CFE6FFE1CF0E
:101F7000D9FF020EE126FD0EDB500AE0FE0EEA6AF2
:101F8000DB34FE0BEA36E96E9E0EE926010E09D01F
:101F9000FE0EEA6ADB34FE0BEA36E96E960EE9269F
:101FA000010EEA22EECFDEFFEDCFDDFFDECFE9FF4F
:101FB000DDCFEAFF020EE926000EEA22FB0EDBCFA0
:101FC000EEFFFC0EDBCFEDFFDECFE9FFDDCFEAFF5A
:101FD000EE52FA0EDBCFEFFF400EDECFE9FFDDCF92
:101FE000EAFFE850EF16880EDECFE9FFDDCFEAFF0B
:101FF000E850EF12FD0EDB500AE0FE0EEA6ADB3419
:10200000FE0BEA36E96E9E0EE926010E09D0FE0EA1
:10201000EA6ADB34FE0BEA36E96E960EE926010E1B
:10202000EA22EF74DECF10F0DDCF11F010C0F3FF25
:1020300011C0F4FF020EE15C02E2E16AE552E16EDA
:10204000E552E7CFD9FF1200D9CFE6FFE1CFD9FFA4
:10205000010EF36EFC0EDB5004E0D890F336E80678
:10206000FCE1F31C106EFD0EDBCFE9FFFE0EDBCFB3
:10207000EAFF1050EF16E552E7CFD9FF1200120029
:1020800001018F5114E1646A606A160E616E0F01DE
:102090009F0E5B6F7B0E606ED08EA284A084F28E4A
:1020A00064B602D06486FCD70101010E8F6F120066
:1020B000D9CFE6FFE1CFD9FF0101E9513C0802E2A7
:1020C000BDDAFAD7E951E92BEA6A000FE96E010E91
:1020D000EA22FE0EDBCFEFFFDBCF10F0116A10BE5D
:1020E000116810C0F3FF11C0F4FFE552E7CFD9FF2C
:1020F0001200D9CFE6FFE1CFD9FFE652FD0EDBCFCC
:10210000F6FFFE0EDBCFF7FF0800F550DF6EDF5065
:1021100011E00A0EDF5C04E10D0EE66EC9DFE55248
:10212000DFCFE6FFC5DFE552FD0EDB2AFE0EE6E35C
:10213000DB2AE4D7E552E552E7CFD9FF12000101CF
:10214000E851EA5D02E17ADAFAD7EA51EA2BEA6A63
:10215000400FE96E010EEA22EF501200D9CFE6FFE0
:10216000E1CFD9FF020EE126DE6ADD6A01012B0E06
:10217000806FD950FB0FE96EFF0EDA20EA6ED8901F
:10218000030EEB50000A08E6000EEE5C000EEE585F
:10219000000EEE58000EEE5820E22D0E806FFB0E62
:1021A000DBCF06F0FC0EDBCF07F0FD0EDBCF08F037
:1021B000FE0EDBCF09F00B680C680D680E6883EC2F
:1021C00019F0FB0E02C0DBFFFC0E03C0DBFFFD0EAF
:1021D00004C0DBFFFE0E05C0DBFFFB0EDBCF10F003
:1021E000FC0EDBCF11F0FD0EDBCF12F0FE0EDBCFCD
:1021F00013F00A0E0B6E0C6A0D6A0E6A10C006F020
:1022000011C007F012C008F013C009F0BBEC19F0C0
:1022100002C010F003C011F004C012F005C013F0AA
:10222000300E1026000E112212221322DECFE9FFFB
:10223000DDCFEAFF810EE926010EEA2210C0EFFF92
:10224000FB0EDBCF06F0FC0EDBCF07F0FD0EDBCF85
:1022500008F0FE0EDBCF09F00A0E0B6E0C6A0D6A59
:102260000E6ABBEC19F0FB0E06C0DBFFFC0E07C0CC
:10227000DBFFFD0E08C0DBFFFE0E09C0DBFFDF2A1F
:10228000010E01E3DB2AF90EDB50DF1813E1FA0E31
:10229000DB50DE52DD180EE1DECFE9FFDDCFEAFFD5
:1022A000810EE926010EEA222E0EEF6EDF2A010EC4
:1022B00001E3DB2AFB0EDBCF07F0FC0EDBCF08F0DF
:1022C000FD0EDBCF09F0FE0EDBCF0AF00A34000E64
:1022D0000A1809E6D880000E0754000E0854000EB4
:1022E0000954000E0A5401E278D780C1E6FFE0DE0F
:1022F000E552D9CFE9FFDACFEAFFEE06000EED5A3C
:10230000EECFF3FFEDCFF4FFF3CFE9FFF4CFEAFF19
:10231000810EE926010EEA22EF50E66EC9DEE55293
:10232000D9CFE9FFDACFEAFFEE50ED10E2E1020E7D
:10233000E15C02E2E16AE552E16EE552E7CFD9FFE6
:102340001200D9CFE6FFE1CFD9FF040EE126020E3D
:10235000DB6A030EDB6A010EDB6ADBCF10F0040ED2
:10236000E76E1018E8AE02D0E73402D0E750105CF8
:1023700032E2E5DEDF6EDFCF10F0400EE76E1018C0
:10238000E8AE02D0103403D0E750D880105402E2F7
:10239000070EDF5E020EDBCF12F0030EDBCF13F071
:1023A000040ED89012361336E804FBE10F0EDF144A
:1023B000146E156A14BE156812501424106E135052
:1023C0001520116E020E10C0DBFF030E11C0DBFFE3
:1023D000010EDB2AC2D7020EDBCF10F0030EDBCFDB
:1023E00011F010C0F3FF11C0F4FF040EE15C02E233
:1023F000E16AE552E16EE552E7CFD9FF1200D9CF8D
:10240000E6FFE1CFD9FFE652FE0EDBCF11F0113827
:10241000116A0F0B106E0F0E1014DF6EDFCF10F06D
:10242000090EE76E1018E8AE02D0103403D0E75062
:10243000D880105402E2070EDF26300EDF24E66E4D
:1024400037DEE552FD0EDBCF10F0FE0EDBCF11F0D4
:1024500011C010F0116A0F0E1014DF6EDFCF10F0F4
:10246000090EE76E1018E8AE02D0103403D0E75022
:10247000D880105402E2070EDF26300EDF24E66E0D
:1024800017DEE552FD0EDBCF10F0FE0EDBCF11F0B4
:10249000040ED89011321032E804FBE10F0E101434
:1024A000DF6EDFCF10F0090EE76E1018E8AE02D035
:1024B000103403D0E750D880105402E2070EDF2614
:1024C000300EDF24E66EF4DDE5520F0EE76EFD0EF2
:1024D000DBCF10F0FE0EDBCF11F0E7501016116AC3
:1024E0001050DF6EDFCF10F0090EE76E1018E8AE67
:1024F00002D0103403D0E750D880105402E2070E07
:10250000DF26300EDF24E66ED3DDE552E552E552DC
:10251000E7CFD9FF1200D9CFE6FFE1CFD9FF030EF5
:10252000E126020EDB6A010EDB6ADBCF10F0020E41
:10253000E76E1018E8AE02D0E73402D0E750105C26
:102540001FE2FDDDDF6EDFCF10F0400EE76E1018EA
:10255000E8AE02D0103403D0E750D880105402E225
:10256000070EDF5E0F0EDF14106E020EDB38F00B6D
:102570001024E76E020EE7CFDBFF010EDB2AD5D772
:10258000020EDB50106E030EE15C02E2E16AE552DE
:10259000E16E1050E552E7CFD9FF1200D9CFE6FF28
:1025A000E1CFD9FF040EE126DE6ADD6ADECF10F04E
:1025B000DDCF11F0FD0EDBCF12F0FE0EDBCF13F0FE
:1025C0001250105C135011581BE2020EDB6A030E0E
:1025D000DB6A020EDBCF10F0030EDBCF11F0550EDD
:1025E000105C000E115807E229D8020EDB2A030EF8
:1025F000F0E3DB2AEED7DF2A010ED8E3DB2AD6D7B9
:10260000040EE15C02E2E16AE552E16EE552E7CFD9
:10261000D9FF1200F00E8B1694162EEC08F040EC49
:1026200010F00101EE69EF690101F069F169010142
:10263000E86BE96BEA6B010EEB6F12000101EB51E5
:1026400001E033D8200E01018F5D2EE36450020BB0
:1026500001E012000101C65112E10101EA51E85DF9
:102660000EE1400EE66E400EE66E010EE66EF1ECF7
:1026700016F0E552E552E5520101E86FEA6B0101FF
:10268000C65110E10101E9510DE0E9C1E6FF000E7C
:10269000E66E010EE66E51EC17F0E552E552E5529A
:1026A0000101E96BEFEC17F012000101EC51ED11A3
:1026B00004E1100EEC6F270EED6FEC07000EED5BE2
:1026C00064A207D0EC51ED112EE18B708BB013D0CA
:1026D00027D001018F5102E18B9022D08F0502E1BA
:1026E0008B8009D0020E8F5D02E18B8019D0040E21
:1026F0008F5D03E18B908B821200100E8F5D06E1DF
:102700000101EC51ED110FE18B700AD0200E8F5DAD
:102710000AE10101EC51ED1106E18B708BA002D0B2
:102720008B9212008B821200D9CFE6FFE1CFD9FF46
:10273000020EE1269388290EC26EC16A3E0EC06E5B
:10274000C08EC282C2B2FED7C450DE6EDD6ADECF5A
:1027500012F0DDCF13F012C013F0126AC35012242E
:10276000106E000E132010C0DEFFDD6EDECF10F005
:10277000DDCF11F010C0F3FF11C0F4FF020EE15CD9
:1027800002E2E16AE552E16EE552E7CFD9FF1200BD
:1027900012001200120012006FEF16F01200BDEFCF
:1027A00016F064840101080E8D6F070E8E6F8D0781
:1027B000000E8E5B8D518E11FAE164941200D9CF18
:1027C000E6FFE1CFD9FFFD0EDBCF08F0FE0EDBCF39
:1027D00009F0010E081801E1095033E0E868081813
:1027E00002E1E86809182BE0030E081801E109501E
:1027F00024E0040E081801E109501DE0020E08183B
:1028000001E1095016E0170E081801E109500FE028
:10281000160E081801E1095008E0150E081801E12C
:10282000095001E010D0BBDF0FD0B8DF0DD0B4DF0E
:102830000BD0B0DF09D0ACDF07D0ABDF05D0ABDF0A
:1028400003D0000001D000D0010E00D0E552E7CF48
:04285000D9FF12009A
:0C285400DACFE4FFE2CFDAFFE9CFE4FFC7
:10286000EACFE4FFF6CFE4FFF7CFE4FFF5CFE4FFD4
:10287000F3CFE4FFF4CFE4FFFACFE4FF00EE00F083
:10288000100EE80403E3EECFE4FFFBD700EE10F0F8
:10289000060EE80403E3EECFE4FFFBD7E65288EC34
:1028A00008F0E55200EE15F0060EE80403E3E5CF6C
:1028B000EDFFFBD700EE0FF0100EE80403E3E5CFC9
:1028C000EDFFFBD7E5CFFAFFE5CFF4FFE5CFF3FF50
:1028D000E5CFF5FFE5CFF7FFE5CFF6FFE5CFEAFF60
:1028E000E5CFE9FFE5CFDAFF1100D8CFE4FFE0CF75
:1028F000E4FFE46EDACFE4FFE652E552E5CFDAFF1B
:10290000E550E5CFE0FFE5CFD8FF10000AEC13F06B
:102910000101E8510101EA5D03E31EEC13F0F8D771
:102920009FEC10F00001F96F230EF95DF9E19FECC7
:1029300010F00001F86FE850460A01E113D1030AD4
:1029400001E1F1D0010A01E18FD0070A57E0010A45
:1029500025E0030A05E03F0EE66E58EC10F000D1CA
:102960006EEC1BF00001080EFB6F800EFC6FE66E34
:10297000FBC0E6FFC5EC1AF0E552E552770EC86ED3
:102980005CEC1BF0C580C5B0FED7C9CFE0F08BD999
:102990005CEC1BF0C584C5A4C3D7FDD76EEC1BF05F
:1029A0000001080EFB6F800EFC6FE66EFBC0E6FFB9
:1029B000C5EC1AF0E552E552770EC86E5CEC1BF0E0
:1029C000C580C5B0FED7C9CFE0F06DD95CEC1BF077
:1029D000C584C5B4FED75CEC1BF0C580C5B0FED77E
:1029E000C9CFE0F060D95CEC1BF0C584C5B4FED75C
:1029F000640EE66EE66ACEEC12F0B1D08BEC12F00B
:102A00000001E46F94869484948C948EC00E7E6E44
:102A1000030E7F6E3D0EE415C26EC16A2E0EC06EAF
:102A200070EC1BF063EC1BF00009FCE153EC1BF0B5
:102A3000F3CFE6F0F4CFE7F0000EE66EE66AF3CFF0
:102A400010F0F4CF11F0126A136AF3CFE6FFF4CF5F
:102A5000E6FF12C0E6FF13C0E6FFAEEC10F0146E06
:102A6000060EE15E14505CD76EEC1BF00001080E00
:102A7000FB6F800EFC6FE66EFBC0E6FFC5EC1AF044
:102A8000E552E552770EC86E5CEC1BF0C580C5B010
:102A9000FED7C9CFE0F007D95CEC1BF0C584C5B404
:102AA000FED75CEC1BF0C580C5B0FED7C9CFE0F007
:102AB000FAD85CEC1BF0C584C5B4FED75CEC1BF007
:102AC000C580C5B0FED7EFD85CEC1BF0C584C5B49B
:102AD000FED75CEC1BF0C580C5B0FED7E4D846EC51
:102AE0001BF00001E36FC58AC588C5B8FED7000E8C
:102AF000E66EE66AE3C010F0116A126A136AE3C078
:102B0000E6FF11C0E6FF12C0E6FF13C0E6FFAEEC21
:102B100010F0146E060EE15E14505CEC1BF0C584E0
:102B2000C5A4FED6FDD7949A8B9A7D0EE66EAAECCC
:102B30001AF0E5528BEC12F00001E56FA1EC11F0F8
:102B4000F3CFE8F0F4CFE9F0E5C0E6FF1EEC1AF0B1
:102B5000E552E8C0E6FFE9C0E6FFEFEC19F0E55208
:102B6000E552DED6B70EE66E12EC1BF0E5529E94EF
:102B7000CF6ACE6ABE6ABF6A0001050EFD6FE66EBF
:102B8000FAEC1AF0E552E66A89EC1AF0E5529EA4D6
:102B9000FED79E9466EC1AF0F3CFEAF0F4CFEBF098
:102BA0009EA4FED79E9466EC1AF0F3CFECF0F4CF1F
:102BB000EDF00001EA51F35CEE6FEB51F458EF6F6A
:102BC0006BEC1BF068EC1BF0B70EE66E12EC1BF022
:102BD000E5529E94CF6ACE6ABE6ABF6A0001050EB6
:102BE000FD6FE66EFAEC1AF0E552E66A89EC1AF02F
:102BF000E5529EA4FED79E9466EC1AF0F3CFEAF05D
:102C0000F4CFEBF00001040EFD6FE66EFAEC1AF063
:102C1000E5529EA4FED79E9466EC1AF0F3CFECF03A
:102C2000F4CFEDF00001EA51F35CF66FEB51F4588C
:102C3000F76F000EE66EE66AEEC010F0EFC011F01E
:102C4000126A136AEEC0E6FFEFC0E6FF12C0E6FFAD
:102C500013C0E6FFAEEC10F0146E060EE15E1450E9
:102C60000A0EE66EE66ACEEC12F0E552E552000E70
:102C7000E66EE66AF6C010F0F7C011F0126A136A49
:102C8000F6C0E6FFF7C0E6FF12C0E6FF13C0E6FF9E
:102C9000AEEC10F0146E060EE15E14506BEC1BF0FF
:102CA00068EC1BF03DD68BEC12F00001E26F9FEC5C
:102CB00010F00001FA6F6F0EFA5D10E1E2C0E6FF5E
:102CC0004AEC19F0E5520001E16FFF0EE15D03E10E
:0E2CD000C9CFE0F0C69EE151F1E1E5D7120058
:022CDE000201F1
:102CE00040511F0B010801E012004051600BE84207
:102CF000E842E842E842E842010801E0120044519B
:102D000003E0440501E012004151220A31E0030AC8
:102D100024E0010A15E0210A0DE0010A01E0120099
:102D20000101D60EA86F010EA96F080EAB6FAC6B38
:102D3000AA8121D00101D60EA86F010EA96F1BD068
:102D400046C2B0F147C2B1F10101D80EAD6F020E1B
:102D5000AE6FB26BB36BAF8F12000101D80EA86FCC
:102D6000020EA96F070EAB6FAC6BC10EAA6F1200FB
:102D700042C2D1F10101AA8F12000201D86B4B0EA1
:102D8000D96FDA6BDB6BDC6BDD6B080EDE6F01017C
:102D9000C66BC56B1A0EE66E020EE66E11EC0FF0F6
:102DA000E552E5521E0EE66E030EE66E11EC0FF0D4
:102DB000E552E552400EE66E580EE66E020EE66EE5
:102DC000E66A030EE66EB5EC0FF0106E050EE15EDE
:102DD0001050F3CFCDF1F4CFCEF10101CF6BD06B1A
:102DE0001200D9CFE6FFE1CFD9FF0101C56BCD516C
:102DF000CE1102E1000E08D0CDC1E9FFCEC1EAFF3D
:102E0000EF50800B01E0010E000945E1FC0EDBCF25
:102E100010F0CDC1E9FFCEC1EAFFEE52EF50D880ED
:102E2000105408E2CDC1E9FFCEC1EAFFEE52FC0E1C
:102E3000EFCFDBFFC56BFC0EDB50C55D19E2C55162
:102E4000EA6A580FE96E020EEA22EF50E66EC551AB
:102E5000E76EFD0EDBCFE9FFFE0EDBCFEAFFE750AA
:102E6000E926000EEA22E552E750EF6EC52BE3D7C4
:102E7000400EE66E580EE66E020EE66EE66A030E31
:102E8000E66EB5EC0FF0106E050EE15E1050F3CF5C
:102E9000CDF1F4CFCEF10101C551E552E7CFD9FF15
:102EA0001200D9CFE6FFE1CFD9FFA0940101C651AE
:102EB0000CE1FD0EDBCFC7F1FE0EDBCFC8F1FC0E3F
:102EC000DBCFCBF1010ECC6FC66FA084E552E7CF0C
:102ED000D9FF1200D9CFE6FFE1CFD9FF030EE126DB
:102EE000A0940101C6512DE1DF6AFD0EDBCF08F091
:102EF000FE0EDBCF09F0DE5208C0DEFF09C0DDFFA9
:102F0000DD52DF2ADF50106E116AFF0E101802E149
:102F100011500BE0010EDBCFE9FFDB2A020EDBCF05
:102F2000EAFF01E3DB2AEF50ECE1FD0EDBCFC7F156
:102F3000FE0EDBCFC8F1DFCFCBF10101010ECC6F6C
:102F4000C66FA084030EE15C02E2E16AE552E16E25
:102F5000E552E7CFD9FF1200D9CFE6FFE1CFD9FF85
:102F6000030EE126A0940101C6512EE1DF6AFD0E99
:102F7000DBCF08F0FE0EDBCF09F0DE5208C0DEFF2B
:102F800009C0DDFFDD52DF2ADF50106E116AFF0E2F
:102F9000101802E111500CE0010EDBCFF6FFDB2A26
:102FA000020EDBCFF7FF01E3DB2A0800F550EBE16F
:102FB000FD0EDBCFC7F1FE0EDBCFC8F1DFCFCBF1CB
:102FC0000101CC6B010EC66FA084030EE15C02E22E
:102FD000E16AE552E16EE552E7CFD9FF1200D9CFA1
:102FE000E6FFE1CFD9FF020EE126A0940101CF5107
:102FF000D01102E1000E08D0CFC1E9FFD0C1EAFF35
:10300000EF50800B01E0010E000906E1030EC65DE2
:1030100001E1C66BC65102E1A0847ED0020EC65DFE
:1030200016E1E66A000EE66EE66A010EE66E030E33
:10303000E66EB5EC0FF0106E050EE15E1050F3CFAA
:10304000CFF1F4CFD0F10101030EC66F64D0C605F5
:1030500062E1400E106E116ACB51105C000E1158E7
:1030600003E2400EDF6E02D0CBC1DFFFDF50CB5D4D
:10307000CB6F980EC96F020ECA6F010EDFCFDBFF58
:10308000CC5116E1010EDB5028E0C7C1F6FFC8C1E4
:10309000F7FF0800F550C9C1E9FFCAC1EAFFEF6EAA
:1030A000C92B000ECA23C72BC823010EDB06EAD7A3
:1030B000010EDB5012E0C7C1E9FFC8C1EAFFEF50C3
:1030C000C9C1E9FFCAC1EAFFEF6EC92B000ECA23CE
:1030D000C72BC823010EDB06EBD70101CB5107E15B
:1030E000400EDF5C02E1020E01D0030EC66FDFCF9F
:1030F000E6FF980EE66E020EE66E010EE66E030E19
:10310000E66EB5EC0FF0106E050EE15E1050F3CFD9
:10311000CFF1F4CFD0F1A084020EE15C02E2E16ACB
:0C312000E552E16EE552E7CFD9FF120046
:04312C00120100028A
:1031300002000008D8040A0001000102000109028F
:103140004300020100C03209040000010202010034
:1031500005240010010424020205240600010524B0
:103160000100010705820308000209040100020AA8
:10317000000000070503024000000705830240002D
:10318000000403090434034D006900630072006FFA
:10319000006300680069007000200054006500634F
:1031A0000068006E006F006C006F006700790020FF
:1031B0000049006E0063002E0034034300440043C6
:1031C000002000520053002D003200330032002056
:1031D0000045006D0075006C006100740069006FAF
:1031E000006E002000440065006D006F003E3181DC
:0531F000318531B93109
:0A31F6002A0EF66E100EF76E000EA2
:10320000F86E01010900F550E36F0900F550E46F15
:1032100003E1E36701D03DD00900F550DE6F0900FE
:10322000F550DF6F0900F550E06F09000900F55017
:10323000E96E0900F550EA6E090009000900F55031
:10324000E16F0900F550E26F09000900F6CFE5F1E2
:10325000F7CFE6F1F8CFE7F1DEC1F6FFDFC1F7FF08
:10326000E0C1F8FF0101E15302E1E25307E0090088
:10327000F550EE6EE107F8E2E207F9D7E5C1F6FF97
:10328000E6C1F7FFE7C1F8FF0101E307000EE45BC9
:04329000BFD7120092
:0C329400D9CFE6FFDACFE6FFE1CFD9FF8B
:1032A000E2CFDAFFFD0EDB50C96EC6AE02D0FF0ED4
:1032B00024D00F0EC61408080FE00F0EC6140B081A
:1032C0000BE0C6889EA6FED7C750040B03E1C7508B
:1032D000010B10E0000E11D00F0EC614080804E018
:1032E0000F0EC6140B0809E1C7B0FED75CEC1BF04B
:1032F000C5AC02D0FE0E01D0000EE552E5CFDAFFDC
:06330000E7CFD9FF120027
:0A33060006500B02F3CF02F0F4CFE3
:1033100003F00C02F3500326000EF420046E065056
:103320000D02F3500426000EF420056E06500E0226
:10333000F350052607500B02F3500326F4500422E5
:10334000000E052207500C02F3500426F45005220B
:1033500007500D02F350052608500B02F3500426C7
:10336000F450052208500C02F350052609500B02B8
:06337000F35005261200D7
:0A337600006AE86A0EAEC8EF19F015
:103380000B6C0C1E0D1E0E1E0C220D220E22001E9A
:1033900009AED3EF19F0066C071E081E091E07229E
:1033A00008220922001E42EC1AF009BEEAEF19F0C9
:1033B00000AE000C066C071E081E091EE86A0722F4
:1033C00008220922026C031E041E051E0322042289
:0E33D0000522000C00BEDAEF19F00188FF0C98
:0233DE00D9CF45
:1033E000E6FFDACFE6FFE1CFD9FFE2CFDAFFE65220
:1033F000E652FC0EDBCF10F0FD0EDBCF11F0060E17
:10340000D89010361136E804FBE110C0DEFF11C081
:10341000DDFF010EDB50BE6EDF50E840E8403F0BA1
:10342000300B106ECF0EBD141010BD6EE552E5527C
:0C343000E552E5CFDAFFE7CFD9FF12002C
:04343C00D9CFE6FFFF
:10344000DACFE6FFE1CFD9FFE2CFDAFF0C0EBD12F3
:10345000CA94FD0EDB50CB6ECA84E552E5CFDAFF8D
:10346000E7CFD9FF1200B9B0949AB9A202D09498CC
:103470007F90B9A402D094967F94B9A602D0949478
:043480007F96120021
:0C348400056A046A036A026A200EE76E03
:10349000D890063607360836093602360336043623
:1034A00005360B50025C0C5003580D5004580E505A
:1034B000055809E30B50025E0C50035A0D50045A94
:0C34C0000E50055A062AE72EE4D7120031
:0434CC00D9CFE6FF6F
:1034D000DACFE6FFE1CFD9FFE2CFDAFFE652E652DC
:1034E0000001FF919EB4FF81BE50DF6E010EBFCF81
:1034F000DBFFDECF10F0DDCF11F010C0F3FF11C005
:10350000F4FFE552E552E552E5CFDAFFE7CFD9FF08
:023510001200A7
:0E351200D9CFE6FFDACFE6FFE1CFD9FFE2CF57
:10352000DAFFFD0EDB507E0BCD6EFD0EDBAC02D064
:10353000CD8E01D0CD9ECF6ACE6A9E90DBAE02D0FA
:103540009D8001D09D90CD80E552E5CFDAFFE7CF99
:04355000D9FF12008D
:0C355400D9CFE6FFDACFE6FFE1CFD9FFC8
:10356000E2CFDAFFFD0EDB50FB0BCA6ECC6A9E92F7
:10357000FD0EDBAE02D09D8201D09D92CA84E55241
:0A358000E5CFDAFFE7CFD9FF120014
:06358A00D9CFE6FFDACF05
:10359000E6FFE1CFD9FFE2CFDAFF3F0EC716C66ADA
:1035A000C56AFD0EDB50C612FC0EDB50C712938CB1
:1035B0009388C68AE552E5CFDAFFE7CFD9FF12003C
:1035C000FE0EE3CFE9FFFF0EE3CFEAFFE9CFF3FF03
:1035D000EACFF4FFFB0EE35003E1FC0EE35009E0F9
:1035E000FB0EE30602E2FC0EE306FD0EE350EE6E78
:0435F000F1D71200FD
:0C35F400D9CFE6FFDACFE6FFE1CFD9FF28
:10360000E2CFDAFFFD0EDB500F0BBD6EFD0EDBAE21
:1036100002D09E949D84948AE552E5CFDAFFE7CFED
:04362000D9FF1200BC
:0C362400D9CFE6FFDACFE6FFE1CFD9FFF7
:10363000E2CFDAFFB70EB114B16EFD0EDB50480BCE
:10364000B110B16EE552E5CFDAFFE7CFD9FF120036
:10365000000EF36E00EE00F0030E01D81200EA60D7
:1036600002D0EE6AFCD7F350E9601200EE6AFCD794
:1036700010EE60F020EE60F0F86A019CFBEC18F0B0
:0C36800072EC1BF086EC14F0FBD712007B
:04368C000F0EC61443
:10369000080804E00F0EC6140B0801E1C586C7A098
:0636A000FED7C950120024
:0A36A600C450136E126AC3501210D4
:0836B000F36E13C0F4FF1200D9
:0836B8001F0EC514FDE1C7500F
:0636C000040BFAE1120008
:0A36C600C250020B01E0010E1200D9
:0636D000CD909D90120058
:0636D6009D94BD6A120084
:0436DC00C69A120078
:0436E000C282120090
:0236E4001200D2
:0236E600FEFFE5
:0236E800FEFFE3
:0636EA00000000010000D9
:0436F00000000000D6
:020000040030CA
:0100000000FF
:0100010032CC
:010002000EEF
:0100030010EC
:0100050008F2
:0100060009F0
:0100080003F4
:010009008076
:01000A0003F2
:01000B00A054
:01000C0003F0
:01000D0040B2
:00000001FF
